:020000020000FC
:08002800FFFFFFFFFFFFFFFFD8
:100000000FE000BD07E007BB1FEF61E00FEF00E866
:0800100006BD02E006BDF4C0CC
:1002000090E0E8E2F0E0E395E03339F1649100E05A
:1002100008BB362F78E07A9539F0032F017008BBC0
:10022000046008BB3695F7CF990F29F000E008BBB2
:1002300002E008BB05C091E001E008BB03E008BB99
:1002400000E806BD08E006BD7AE07A9509F0FDCF2A
:1002500000E806BD00E006BDD6CF00C00000D0CF4C
:100260007FEF672700E008BB362F78E07A9539F0FA
:10027000032F017008BB046008BB3695F7CF990FB8
:1002800029F000E008BB02E008BB05C091E001E0F6
:1002900008BB03E008BBB4CF61E000E008BB362F29
:1002A00078E07A9539F0032F017008BB046008BB31
:1002B0003695F7CF990F29F000E008BB02E008BBA4
:0E02C00005C091E001E008BB03E008BB99CF48
:021B580000008B
:00000001FF
